:020000040000FA
:060000000A128A11DF2F35
:100C4C007E088A007F0882000A128A1126260A1260
:100C5C008A118000840A04087D0603190034FF0AF7
:100C6C000319FE0A2A2E463400344534003452341B
:100C7C00003444340034493400344E3400344134AC
:100C8C0000344E3400340D340034433400344134D9
:100C9C000034503400344F34003452340034413476
:100CAC0000344C3400340D3400344A3400345534A0
:100CBC000034413400344E34003450340034493460
:100CCC0000340D3400344C34003455340034493481
:100CDC000034533400340D340034013400345034B7
:100CEC000034523400344534003443340034493435
:100CFC0000344F3400344E34003445340034203446
:100D0C0000344C3400344134003420340034543436
:100D1C00003445340034433400344C340034413412
:100D2C000034203400342234003441340034223472
:100D3C000034203400345034003441340034523404
:100D4C0000344134003420340034563400344534FB
:100D5C0000345234003420340034493400344E34DE
:100D6C0000345434003445340034473400345234A5
:100D7C000034413400344E3400345434003445349F
:100D8C000034533400340D3400340D3400348316E5
:100D9C000313871707132630980090308312031320
:100DAC0098001930831603139900831203135A0306
:100DBC005B04031DE22EE32E112FF201F3018316C7
:100DCC000313981CEA2EEB2EE52E7208F000700728
:100DDC00903E84008317000883120313990034306B
:100DEC00F100F130F000F00BF92EF10BF92EFE2E84
:100DFC000130F2070318F30A0030F3077308803A46
:100E0C00FF0080307F02031D0D2F2C307202031C5B
:100E1C00102F112FE52E83120313DA01DB018C1E28
:100E2C00182F192FDB2E1A08F0007008FC00613007
:100E3C007C06031D222F232FDB2EF401F5018316D4
:100E4C000313981C2A2F2B2F252F7408F0007007E2
:100E5C00203E84008313000883120313990034305E
:100E6C00F100F130F000F00B392FF10B392F3E2F40
:100E7C000130F4070318F50A0030F5077508803ABD
:100E8C00FF0080307F02031D4D2F09307402031CBC
:100E9C00502F512F252FF601F70183160313981CA1
:100EAC00582F592F532F7608F0007007423E8400BC
:100EBC00831300088312031399003430F100F130CE
:100ECC00F000F00B672FF10B672F6C2F0130F6073A
:100EDC000318F70A0030F7077708803AFF008030D4
:100EEC007F02031D7B2F07307602031C7E2F7F2F82
:100EFC00532FF801F90183160313981C862F872FA3
:100F0C00812F7808F0007007503E8400831300088E
:100F1C008312031399003430F100F130F000F00B20
:100F2C00952FF10B952F9A2F0130F8070318F90A1A
:100F3C000030F9077908803AFF0080307F02031DEA
:100F4C00A92F05307802031CAC2FAD2F812FFA018D
:100F5C00FB0183160313981CB42FB52FAF2F7A08FF
:100F6C00F0007007323E84008313000883120313D1
:100F7C0099003430F100F130F000F00BC32FF10B7D
:100F8C00C32FC82F0130FA070318FB0A0030FB07E8
:100F9C007B08803AFF0080307F02031DD72F08307A
:100FAC007A02031CDA2FDB2FAF2FDB2E0A128A11E9
:100FBC0000288317E830FD000630FE007530FF0076
:100FCC00903084000A128A112A260A128A1183137D
:100FDC005C30FD000630FE003930FF00203084000C
:100FEC000A128A112A260A128A11FC0183010A129A
:040FFC008A11CD2E5B
:04400E00E52FFF3F5C
:00000001FF
